:1000000000308A007B28000023308400831300081E
:10001000031917280630F800F701F70B0D28F80B25
:100020000C287B30F700F70B1328800B0A280800F8
:100030008316860183128601FA30A300042008008B
:1000400083168601FF3083128600FA30A300042055
:100050008A110A12B3288030A100A2012208073CAD
:10006000031C3E2883168601831221088600FA307D
:10007000A30004200310A10CA20A2E2883168601D7
:100080008312860108000230A10083168601013028
:1000900083128600FA30A30004200130A200220857
:1000A000073C031C5F288316860183122108860003
:1000B0000310A10DFA30A3000420A20A4F288316D2
:1000C00086018312860108002B2043208A110A1220
:1000D000B32883168601FF3083128600FA30A3000E
:1000E00004208316860183128601FA30A3000420BF
:1000F0008A110A12B328840183131F308305153037
:1001000083169900A63098009030831298008316C9
:100110001F149F141F159F1107309C0083128C1E03
:100120008F281A08303A0319A528013A0319A7287D
:10013000033A0319A928013A0319AB28073A03190E
:10014000AD28013A0319AF28B1281820B328202878
:10015000B3282B20B3284320B3286428B328692868
:0A016000B3281820B3288F2863008D
:023E00000800B8
:02400E00723FFF
:00000001FF
;PIC16F877A
;CRC=8858  CREATED="20-abr.-20 10:38"
