:1000000000308A007B280000D437E4377310EC37C7
:100010007310E234F439A032EE316537E434E4375A
:1000200073050D00D437E4377310EC377310EC32DE
:10003000E439A030F030E730E43773050D00831663
:1000400003178C170C140000000083120C087F3972
:10005000031965280313A10003170D080313A20059
:1000600003170F080313A30021080C1E352899005D
:10007000220803178D000313230803178F0083162C
:100080008C170C140000000083120C0D0E0D7F392C
:10009000031965280313A10003170D080313A20019
:1000A00003170F080313A30021080C1E55289900FD
:1000B000220803178D000313230803178F008D0AEE
:1000C00003198F0A03131F28031703130800223094
:1000D00084008313000803197A280630F800F7011A
:1000E000F70B7028F80B6F287B30F700F70B76289A
:1000F000800B6D280800840183131F3083051530A1
:1001000083169900A63098009030831298008316C9
:100110001F149F141F159F1107309C008601FF308C
:1001200083128600043003178D0000308F00031304
:100130001F200830A100FA30A2006720A10B9B28E5
:100140008316860183128601123003178D0000305A
:100150008F0003131F200830A100FA30A20067208F
:0A016000A10BAD2883168E28630062
:023E00000800B8
:02400E00723FFF
:00000001FF
;PIC16F877A
;CRC=8BB4  CREATED="20-abr.-20 10:37"
